:1000000000000220052E0000312E0000312E0000DD
:10001000312E0000312E0000312E0000312E000064
:10002000312E0000312E0000312E0000312E000054
:10003000312E0000312E0000312E0000312E000044
:10004000312E0000190500003D060000312E000091
:10005000312E0000312E0000312E0000312E000024
:10006000312E0000312E0000312E0000D505000099
:10007000312E0000312E0000312E0000312E000004
:10008000312E0000312E0000312E0000312E0000F4
:10009000312E0000312E0000312E0000312E0000E4
:1000A000312E0000312E000059040000312E0000D6
:1000B000312E0000312E000035040000312E0000EA
:1000C000312E0000312E0000312E0000312E0000B4
:1000D000312E0000312E0000312E000010B5054CED
:1000E000237833B9044B13B10448AFF300800123E4
:1000F000237010BDB400002000000000ECC600001A
:1001000008B5064B1BB106480649AFF30080064808
:10011000036813B1054B03B1984708BD0000000008
:10012000ECC60000B8000020B00000200000000075
:10013000154B002B08BF134B9D46A3F5803A0021B9
:100140008B460F461348144A121A0AF0E9F80F4B6F
:10015000002B00D098470E4B002B00D09847002072
:10016000002104000D000D48002802D00C48AFF318
:1001700000800AF08FF82000290000F027FB0AF029
:1001800017F800BF00000800000002200000000077
:1001900000000000B40000200C010020000000005E
:1001A0000000000080B483B000AF0346FB71084B31
:1001B00097F907205209F97901F01F01012000FA8F
:1001C00001F143F822100C37BD465DF8047B7047FF
:1001D00000E100E080B483B000AF0346FB71094B3F
:1001E00097F907205209F97901F01F01012000FA5F
:1001F00001F1603243F822100C37BD465DF8047BF4
:10020000704700BF00E100E080B483B000AF034658
:100210003960FB710948FA793B68012101FA03F35F
:1002200019461346DB0013449B0003441033596006
:100230000C37BD465DF8047B704700BF006000408E
:1002400080B582B002AF1F48012101F08FF8032072
:1002500001210422002301F095FE03200021012248
:10026000002301F08FFE01200A210122002301F06A
:1002700089FE012009210122002301F083FE0320D1
:1002800007210422002301F07DFE012300930120B9
:1002900009210122002301F00DFE00F0CDFB012019
:1002A000FFF798FF0120FFF77DFF0B20FFF792FF7C
:1002B0000B20FFF777FF03200121FFF7A5FFBD46C5
:1002C00080BD00BF00D2040080B582B002AF012320
:1002D0000093032000210122002301F0EBFDBD4625
:1002E00080BD00BF80B582B002AF00230093032021
:1002F00000210122002301F0DDFDBD4680BD00BFCD
:1003000080B582B002AF0123009301200A210122AF
:10031000002301F0CFFDBD4680BD00BF80B582B097
:1003200002AF0023009301200A210122002301F0E3
:10033000C1FDBD4680BD00BF80B483B000AF786012
:10034000034B7A689A610C37BD465DF8047B7047B1
:100350000000084080B483B000AF786039607B68EB
:100360003A689A620C37BD465DF8047B704700BF5F
:1003700080B483B000AF7860044B7A68C3F81C2166
:100380000C37BD465DF8047B704700BF006000403D
:1003900080B400AF034BD3F814311846BD465DF866
:1003A000047B70470060004080B483B000AF034618
:1003B0003960FB710948FA793B68012101FA03F3BE
:1003C00019461346DB0013449B0003441033596065
:1003D0000C37BD465DF8047B704700BF00600040ED
:1003E00080B483B000AF03463960FB710948FA79E5
:1003F0003B68012101FA03F319461346DB0013445D
:100400009B000344183319600C37BD465DF8047B2C
:10041000704700BF0060004080B483B000AF7860D8
:1004200039607B683A689A610C37BD465DF8047B99
:10043000704700BF80B500AF0220FFF77DFF00F0DE
:10044000B7FA0346002B14BF00230123DBB2002BB5
:1004500001D000F073FA80BD80B500AF29480121BA
:10046000FFF778FF00F0A4FA0346022B14BF002325
:100470000123DBB2002B27D0234B1A68234B53F800
:100480002230184602F052FC1F4B1B685A1C1E4BB0
:100490001A601D4B1B68042B02D11B4B00221A60F3
:1004A00003200121FFF79CFF194B1B78002B05D07F
:1004B00000F0F2FB164B00221A7022E000F0F6FB6F
:1004C000134B01221A701CE000F072FA0346012B54
:1004D00014BF00230123DBB2002B12D000F0D8FAA6
:1004E0000C4B1B68072B07D100F034FA064B002297
:1004F0001A60084B00221A60064B1B685A1C054BF9
:100500001A6080BD00200840D000002000000020BC
:1005100020000020D400002080B500AF00F048FA91
:100520000346022B14BF00230123DBB2002B1CD097
:10053000FFF72EFF034603F00103002B0CBF00233F
:100540000123DBB2002B3ED00120FFF711FF00F0AA
:1005500011FA02F0E5FA03200121FFF725FF00F070
:10056000A5FB194B01221A702DE000F021FA034679
:10057000032B14BF00230123DBB2002B23D0FFF792
:1005800007FF034603F48063002B0CBF0023012305
:10059000DBB2002B17D04FF48060FFF7E9FE0B4B66
:1005A0001B685A1C094B1A60084B1B68042B02D1AC
:1005B000064B00221A60054B1A68054B53F822308F
:1005C000184602F0B3FB80BD20000020D8000020B8
:1005D0001000002080B500AFFFF7DAFE034603F4F9
:1005E0000073002B0CBF00230123DBB2002B20D0B3
:1005F00000F0DEF90346032B14BF00230123DBB216
:10060000002B0DD04FF40070FFF7B2FE00F0B2F9EE
:10061000084B1B68184600F05BF902F081FA08E00D
:100620004FF40070FFF7A4FE00F0B2F9024802F0A8
:100630007DFB80BDD800002058B3000080B500AF1E
:1006400004480121FFF7E8FE03200721FFF7C8FE59
:1006500080BD00BF0000014080B483B000AF0346FE
:10066000FB71084B97F907205209F97901F01F0136
:10067000012000FA01F143F822100C37BD465DF865
:10068000047B704700E100E080B483B000AF786085
:1006900039607B68DA6A3B68DB431A407B68DA6260
:1006A0000C37BD465DF8047B704700BF80B483B053
:1006B00000AF786039607B68DA6A3B681A437B6810
:1006C000DA620C37BD465DF8047B704780B584B0B4
:1006D00000AF1A48202100F021FD1A20FFF7BCFFCF
:1006E0001648012100F042FE01233B7100237B717B
:1006F0000023BB710023FB7100233B7200237B723C
:100700000023BB720023FB7200233B7300237B7327
:100710000023BB7300233B7101233B723B1D084840
:10072000194602F019F80648012101F0FFFF01E027
:1007300003F0EEFB1037BD4680BD00BF70261200EF
:100740000020084080B500AF02480121FFF79CFF60
:1007500080BD00BF0020084080B582B000AF786047
:100760007B689B01013B064800211A4601F0B2FF5D
:1007700003480121FFF79AFF0837BD4680BD00BF3F
:100780000020084080B582B000AF0E4B1B687B6034
:100790003B46184602F0CAF87B681B0E0F2B0DD99A
:1007A0003B78032B0AD1084B074A126822F050020B
:1007B00042F010021A6001E003F0AAFB0837BD46C0
:1007C00080BD00BFFC81E00FC0800C4080B500AF51
:1007D000FFF7D8FFFFF734FD002002F04BFA00F0DE
:1007E00035F8FFF773FFFFF7ADFF00F021FA0120A6
:1007F00001F082FAFBE700BF80B483B000AF03468C
:10080000FB71084B97F907205209F97901F01F0194
:10081000012000FA01F143F822100C37BD465DF8C3
:10082000047B704700E100E080B483B000AF7860E3
:10083000054B054AD1697A680A43DA610C37BD462F
:100840005DF8047B704700BF0000084080B582B0AF
:1008500000AF1A4A3B1D1188927819809A70184887
:10086000012100F083FD1748022100F0A7FF164880
:100870004FF4004100F052FC1348012100F076FDD6
:1008800000233B7100237B710123BB713B1D184684
:1008900002F024F800200D4901F0EAFF1E20FFF7C6
:1008A000ABFF0220FFF7C0FF012002F007F801E0D4
:1008B00003F02EFB0837BD4680BD00BF60B30000CB
:1008C0000043020002001800701610007F51010062
:1008D00080B584B000AF78607B68032B17D801A285
:1008E00052F823F0F5080000FB080000030900009F
:1008F000090900000A23FB6009E04AF6C003FB6017
:1009000005E0094BFB6002E0084BFB6000BFFB68A1
:10091000013B0020194601F0ABFF012001F0CEFFA2
:100920001037BD4680BD00BF8051010000A302000A
:1009300080B500AF002001F0C1FF80BD80B500AFE1
:100940000420FFF709FF024B01221A7080BD00BF8F
:10095000DC00002080B500AF054B02221A70FFF7C3
:10096000F1FEFFF7B1FC0A20FFF7F6FE80BD00BFE5
:10097000DC00002080B500AFFFF7E4FEFFF7B2FC1B
:10098000FFF7CCFC014B00221A7080BDDC00002078
:1009900080B500AFFFF7D6FEFFF7A4FCFFF7B0FC71
:1009A000FFF7C6FF014B03221A7080BDDC00002058
:1009B00080B400AF034B1B781846BD465DF8047B3E
:1009C000704700BFDC00002080B483B000AF034656
:1009D0003960FB710948FA793B68012101FA03F398
:1009E00019461346DB0013449B000344103359603F
:1009F0000C37BD465DF8047B704700BF00600040C7
:100A000080B483B000AF03463960FB710948FA79BE
:100A10003B68012101FA03F319461346DB00134436
:100A20009B000344103319600C37BD465DF8047B0E
:100A3000704700BF0060004080B500AF134801213F
:100A400000F094FC022000210422002301F09AFA15
:100A5000022003210422002301F094FA0220042141
:100A60000422002301F08EFA022005210422002333
:100A700001F088FA022006210422002301F082FA04
:100A800002200621FFF7BCFF80BD00BF00D204009A
:100A900080B500AF3B4B1B781A463B4B13F8222026
:100AA0003A4B1A70374B1B78374A9B0013445A78DD
:100AB000374B1A70334B1B78334A9B0013449A7898
:100AC000344B1A702F4B1B782F4A9B001344DA7853
:100AD000314B1A702B4B1B781A462B4B13F82230D4
:100AE000002B04D102200021FFF76EFF03E002205B
:100AF0000021FFF785FF234B1B78234A9B001344FB
:100B00005B78002B04D102200321FFF75DFF03E097
:100B100002200321FFF774FF1A4B1B781A4A9B002F
:100B200013449B78002B04D102200421FFF74CFFD3
:100B300003E002200421FFF763FF124B1B78124AE7
:100B40009B001344DB78002B04D102200521FFF722
:100B50003BFF03E002200521FFF752FF094B1A7803
:100B60000E4B1B789A4206D2064B1B780133DAB241
:100B7000044B1A7002E0034B00221A70014B1B78E1
:100B8000184680BDE100002024000020DD00002088
:100B9000DE000020DF000020E00000202100002017
:100BA00080B483B000AF0346FB71084B97F9072070
:100BB0005209F97901F01F01012000FA01F143F80F
:100BC00022100C37BD465DF8047B704700E100E061
:100BD00080B483B000AF786039607B68DA683B68C6
:100BE000DB431A407B68DA600C37BD465DF8047B56
:100BF000704700BF80B483B000AF786039607B6815
:100C0000DA683B681A437B68DA600C37BD465DF8EA
:100C1000047B704780B483B000AF786039607B6834
:100C20003A68DA610C37BD465DF8047B704700BF57
:100C300080B584B000AF1648012100F097FB012376
:100C40003B7001237B700A23BB700023FB700023E1
:100C5000BB710023FB7100233B7200237B720023D6
:100C6000BB720023FB7200233B730220FFF798FF47
:100C700008480E21FFF7CEFF3B460648194601F013
:100C80008FFE01E003F044F91037BD4680BD00BF80
:100C9000005204000000014080B500AF024801216D
:100CA000FFF7A8FF80BD00BF0000014080B500AF86
:100CB00002480121FFF78CFF80BD00BF000001400A
:100CC00080B487B000AFF860B9607A60FB6803F168
:100CD0000473DA00BB6813449B007B617B697A680C
:100CE0001A601C37BD465DF8047B704780B485B040
:100CF00000AF786039607B6803F10473DA003B6809
:100D000013449B00FB60FB681B6818461437BD4604
:100D10005DF8047B704700BF80B487B000AF786097
:100D20007B68002B04D07B68B3F5004F00D800BF70
:100D30007B683B613B69B3FA83F3FB60FB68DBB222
:100D4000C3F11F037B617B6918461C37BD465DF804
:100D5000047B704780B400AF054BDB6C03F47F036A
:100D60001B0CDBB21846BD465DF8047B704700BF24
:100D7000B081E00F80B483B000AF1A4B5B6903F41D
:100D8000E063B3F5007F14D0B3F5007F05D8002BE6
:100D900015D0B3F5807F0FD01AE0B3F5C06F14D033
:100DA000B3F5E06F0ED0B3F5407F11D10E4B7B60F1
:100DB00011E00E4B7B600EE00D4B7B600BE00D4BAA
:100DC0007B6008E00C4B7B6005E00C4B7B6002E035
:100DD00000237B6000BF7B6818460C37BD465DF87A
:100DE000047B704700800C4040420F00C0CF6A0077
:100DF000C0D8A700809FD500406F4001003FAB01E5
:100E000080B582B000AF124800F028FC0346FB70AA
:100E1000FB78072B0FD0082B11D102F047F8786030
:100E20000C4B1B6803F4E0339B0B01337A68B2FB75
:100E3000F3F37B6006E0FFF79DFF786002E000239C
:100E40007B6000BF7B6818460837BD4680BD00BF89
:100E500006000C0000800C4080B485B000AF7860C4
:100E6000284BDB6B002B0CBF00230123BB72254BEF
:100E700041F67132DA63234B5B6803F00703FB60D2
:100E8000FB68012B01D9042B02D10023FB7202E085
:100E90000123FB7200BF7A681B4B9A4207D9FB7A89
:100EA000002B01D0052300E00423FB6016E07A68E4
:100EB000154B9A420BD87A68144B9A4207D9FB7AA1
:100EC000002B01D0032300E00123FB6006E0FB7A46
:100ED000002B01D0022300E00023FB60094B094AEC
:100EE000526822F00701FA680A435A60BB7A002B65
:100EF00002D0044B0022DA631437BD465DF8047B50
:100F0000704700BF00000C400048E8010024F400D6
:100F100080B500AF01F0C0FF03461846FFF79CFF05
:100F200080BD00BF80B584B000AF78600023BB6097
:100F30007B683A4A934203D0394A934200D000E09A
:100F400000BF786800F08AFB0346FB607B68334A89
:100F5000934203D0324A934206D00CE0314B9B6A55
:100F600003F00303FB6006E02E4B9B6A03F00C03C7
:100F70009B08FB6000BFFB68032B47D801A252F817
:100F800023F000BFD50F0000950F00009D0F00005B
:100F9000A50F000002F014F8B8603AE002F024F85F
:100FA000B86036E01F4B5B6803F48073002B05D1FB
:100FB0001C4B1B6803F08043002B05D001F048FF59
:100FC00003469B08BB6024E001F042FF03465B0838
:100FD000BB601EE00023BB607A68104B9A4203D0CE
:100FE0007A680F4B9A4210D10E4B9A6A79680B4B74
:100FF000994201D1102300E0142322FA03F3002BBD
:1010000003D001F0E7FFB86003E002E00023BB601B
:1010100000BFBB6818461037BD4680BD02001800EF
:1010200003001A0000800C4080B582B000AFFFF7CB
:1010300091FE0346482B23D04A2B23D1144B1B6926
:101040009BB203F03F039BB21B02FB80104B9B69DA
:101050009BB203F0F0039AB2FB881343FB800C4B66
:10106000DB6903F0F0031B099AB2FB881343FB8092
:10107000FB88B3F5017F01D3064B04E0064B02E089
:10108000054B00E0002318460837BD4680BD00BF71
:10109000D0FF0FE000366E010048E80180B483B055
:1010A00000AF7860094B5B6D03F00103002B00D0AB
:1010B00006E000BF054B1A6D7B681340002BF9D189
:1010C0000C37BD465DF8047B704700BF00800C40C4
:1010D00080B582B000AF104800F0C0FA0346FB7044
:1010E000FB78032B07D0082B09D0022B0BD101F082
:1010F0007BFF78600AE001F063FF786006E001F0B2
:10110000D5FE786002E000237B6000BF7B68184654
:101110000837BD4680BD00BF07232000B0B584B0AE
:1011200000AF786039607B681B0903F00F03FB6038
:10113000FB68013B072B00F2048101A252F823F067
:1011400061110000431300004313000095110000DB
:10115000BF110000431300002B120000EF1200002B
:101160003B68002B03D03B68082B00D800BFFFF77B
:10117000CFFE764B754A126822F4E0313A68013AA4
:1011800092030A431A6001F063FEB860B868FFF783
:1011900063FED7E03B68002B04D03B68B3F5007FCB
:1011A00000D800BF3868FFF7B7FD3860674B674A63
:1011B000926822F00F013A680A439A60C2E0FFF792
:1011C000A7FE112000F04AF902463B68B2FBF3F497
:1011D000FFF72AFF03469C420AD85C481E210022E2
:1011E000FFF76EFD5A4808210022FFF769FD09E06C
:1011F00056481E210122FFF763FD554808210122B0
:10120000FFF75EFD3868FFF787FD38604F4B4F4AA8
:10121000526822F00F013A680A435A6001F018FE42
:10122000B860B868FFF718FE8CE07B68494A9342C3
:101230001ED0484A934203D8474A934207D055E00C
:10124000464A934225D0464A93423FD04EE004207E
:10125000FFF724FF3868FFF75FFD38603B4B3B4AE0
:10126000926E22F0F0013A6812010A439A663DE05C
:101270000420FFF713FF3868FFF74EFD3860334B4B
:10128000324A926E22F470613A6812020A439A66F8
:101290002CE03B680F2B03D93B68802B00D800BFA4
:1012A0000420FFF7FBFE3868FFF736FD3860274C57
:1012B000264B9B6E23F440551020FFF72DFD03466F
:1012C0003A68D31A1B032B43A3660FE00420FFF7F1
:1012D000E5FE3868FFF720FD38601C4B1B4A926E14
:1012E00022F003013A680A439A6600BF2AE07B684D
:1012F0001C4A934203D01C4A934210D020E0402065
:10130000FFF7CCFE3868FFF707FD38600F4B0F4A38
:10131000126F22F003013A680A431A6710E0402076
:10132000FFF7BCFE3868FFF7F7FC3860074B074A49
:10133000126F22F030013A6812010A431A6700BFA7
:1013400000E000BF1037BD46B0BD00BF00800C40BC
:1013500004800C40702612007016100070002400EB
:1013600070062800800714008017160090B587B01B
:1013700000AF78600B46FB7000233B617B681B0A63
:1013800003F00F03013B092B52D801A252F823F0BE
:10139000E7130000ED130000B91300003114000042
:1013A00031140000F3130000FD130000311400009D
:1013B00031140000071400001F4B7B611F4800F030
:1013C0004DF80446FFF730FE03469C420AD91C48FC
:1013D0001E210122FFF774FC1A4808210122FFF7A1
:1013E0006FFC13E012E0184B7B610FE0174B7B6141
:1013F0000CE0174B7B6101233B6107E0154B7B61E0
:1014000010233B6102E0144B7B6100BF7B681B0B28
:1014100003F01F03FB603B69002B02D03869FFF724
:101420003DFEFB787869F9681A46FFF749FC00E051
:1014300000BF1C37BD4690BD40800C4050000200EC
:1014400000800C4004800C4008800C4044800C401C
:1014500058800C4060800C4078800C4090B585B07E
:1014600000AF78607B6803F47813B3F5A01F00F039
:10147000C080B3F5A01F1AD8B3F5402F00F0D48078
:10148000B3F5402F08D8B3F5003F51D0B3F5802F06
:1014900038D0002B28D0D3E0B3F5801F51D0B3F55E
:1014A000901F5CD0B3F5602F00F0C280C8E0B3F5A8
:1014B000001F00F0C180B3F5001F0BD8B3F5C01FAB
:1014C0003AD0B3F5D01F00F08F80B3F5B01F00F015
:1014D0009D80B5E0B3F5181F62D0B3F5201F76D01C
:1014E000B3F5101F49D0ABE001F0E0FCF860584BB9
:1014F0001B6803F4E0339B0B0133FA68B2FBF3F390
:10150000FB60A0E001F0D2FCF860514B1B6803F4D3
:10151000E0339B0B0133FA68B2FBF3F3FB604C4BF7
:101520009B6803F00F03FA6822FA03F3FB608AE07A
:1015300001F08EFCF86086E04648FFF7F3FCF860A7
:1015400081E04448FFF7EEFCF860414B9B6E03F0EE
:10155000F0031B09FA6822FA03F3FB6073E03D48CD
:10156000FFF7E0FCF8603A4B9B6E03F470631B0AD4
:10157000FA6822FA03F3FB6065E03648FFF7D2FC15
:10158000F860334B9B6E03F440531C0B1020FFF7A5
:10159000C3FB03462344FA6822FA03F3FB6052E0DC
:1015A0002C48FFF7BFFCF860294B9B6E03F44053B7
:1015B0001B0BFA6822FA03F3FB60254BDB6F03F089
:1015C00007030133FA68B2FBF3F3FB603BE0214809
:1015D000FFF7A8FCF8601E4B9B6E03F00303FA684C
:1015E00022FA03F3FB602EE01B48FFF79BFCF86038
:1015F00029E01948FFF796FCF860154B1B6F03F0C4
:101600000303FA6822FA03F3FB601CE01248FFF7B9
:1016100089FCF8600E4B1B6F03F030031B09FA685E
:1016200022FA03F3FB600EE0FFF7EAFBF8600AE042
:10163000FFF7A0FBF86006E0FFF74AFDF86002E064
:101640000023FB6000BFFB6818461437BD4690BD01
:1016500000800C400200180003001A0080B485B01E
:1016600000AF78600123FB737B6803F00F03BB605E
:10167000BB68013B062B00F2958001A252F823F0D3
:101680009D160000D31600000F170000A5170000DC
:10169000A51700004B17000071170000464BDB6ACE
:1016A00003F47053B3F5805F09D0B3F5005F03D046
:1016B000B3F5006F06D008E00223FB7308E00323B4
:1016C000FB7305E00423FB7302E00523FB7300BFFB
:1016D0006BE0394B9B6A03F00303022B06D0032B0C
:1016E00007D0012B08D10323FB730FE00223FB7308
:1016F0000CE00623FB7309E02F4B9B6A03F4803355
:10170000002B02D00923FB7300E000BF4DE02A4B01
:101710009B6A03F00C03082B06D00C2B07D0042B7C
:1017200008D10323FB730FE00223FB730CE00623B5
:10173000FB7309E0204B9B6A03F48013002B02D05B
:101740000923FB7300E000BF2FE00723FB731A4B54
:101750001B6803F08053002B03D0B3F1805F03D0EC
:1017600023E00723FB7302E00823FB7300BF1CE0A8
:10177000114BDB6A03F46033B3F5803F08D0B3F557
:10178000003F08D0B3F5004F08D10823FB7308E0F1
:101790000223FB7305E00323FB7302E00123FB73C9
:1017A00000BF02E00023FB7300BFFB7B1846143729
:1017B000BD465DF8047B704700800C4090B589B051
:1017C00000AF78600B46FB700323FB610323FB76BD
:1017D00000233B617B6803F00F03FB60FB68013B68
:1017E000062B00F22E8101A252F823F00918000006
:1017F000D3180000D3180000431A0000431A000059
:10180000B1190000DB190000FB78023B072B00F246
:101810001A8101A252F823F0391800004318000081
:101820004D180000A1180000471A0000471A0000D8
:10183000471A0000471A00000423FB610023FB76CF
:1018400033E00323FB610123FB762EE00223FB76CA
:101850000223FB6101F0A2FB0446FFF7E5FB034610
:101860009C4213D97B4A7B4B1B6843F0804343F077
:1018700060031360774B1B6C03F01003002B0ED03A
:10188000754808210122FFF71BFA0EE0714B714ADF
:10189000126822F0600242F020021A6005E004E0C3
:1018A0000123FB610323FB7600BFFB7E1846012169
:1018B000012200F0F3F8FFF72BFB664BFA695A623E
:1018C00000F068FA01F0C4FAB860B868FFF7C4FA2B
:1018D000BCE0FB78013B082B00F2B78001A252F874
:1018E00023F000BF091900000F1900001F190000A4
:1018F0004B1A00004B1A00002F1900004B1A000071
:101900004B1A00006719000000237B6130E00020C3
:101910000121012200F0C2F802237B6128E00120AE
:101920000121012200F0BAF801237B6120E04B483D
:1019300004210122FFF7C4F903237B6101F088FA37
:10194000B860FFF771FB0246BB689A420AD2414871
:101950001E210122FFF7B4F93F4808210122FFF7B9
:10196000AFF905E004E000237B6101233B6100BF88
:10197000FB68022B0DD1374A364B9B6A23F4803328
:1019800023F00303796919433B691B040B439362FA
:101990005CE0304A2F4B9B6A23F4801323F00C0346
:1019A0007969890019433B691B050B4393624DE03C
:1019B000FB78072B02D0082B07D047E0254B254AA0
:1019C000126822F080521A6006E0224B214A126807
:1019D00042F080521A6000BF38E0FB78032B14D02D
:1019E000082B22D0022B00D030E000200121012260
:1019F00000F054F8174B40225A6200BF154BDB6AC7
:101A000003F48033002BF9D01AE0012001210122D8
:101A100000F044F80F4B60225A6200BF0D4BDB6AA6
:101A200003F40033002BF9D00AE00A4B20225A625B
:101A300000BF084BDB6A03F40043002BF9D000BF62
:101A400004E000BF02E000BF00E000BF2437BD4655
:101A500090BD00BF00800C4004800C4040800C40D2
:101A600080B483B000AF78600B4B9B6D03F008032C
:101A7000002B00D00BE07B6803F007037B60064B74
:101A8000054AD26F22F007017A680A43DA670C37F9
:101A9000BD465DF8047B704700800C4080B586B081
:101AA00000AF13460246FA710A46BA717B71FB79A0
:101AB000052B4CD801A252F823F000BF0D1B0000EB
:101AC000FF1A0000E31A0000D51A0000F11A000006
:101AD0004F1B000001233B610223FB6001237B615C
:101AE0001DE004233B610823FB6003237B6116E0B8
:101AF00010233B612023FB6005237B610FE0402323
:101B00003B618023FB6007237B6108E04FF4807317
:101B10003B614FF40073FB6009237B6100BFBB791D
:101B2000002B0ED00C4B3A691A627B79002B0BD03C
:101B300000BF0A487969FFF7D9F80346002BF8D0AF
:101B400002E0054BFA681A6200F024F900E000BFD9
:101B50001837BD4680BD00BF00800C402C800C4073
:101B600080B500AF01F074F980BD00BF80B400AF54
:101B7000034B0022C3F88420BD465DF8047B704708
:101B800000800C4080B400AF044B45F60E02C3F851
:101B90008420BD465DF8047B704700BF00800C4088
:101BA00080B582B000AF384BD3F8843003F0010326
:101BB0007B60FFF7E7FF00233B60344B1B6803F0BB
:101BC00001033A6813433B60304B1B6803F010037A
:101BD0003A6813433B602D4B1B6803F040033A689F
:101BE00013433B60294B1B6803F004033A6813431B
:101BF0003B60264B1B6803F480733A6813433B60D9
:101C0000214B3A681A62214B1B6803F47053B3F5F9
:101C1000805F06D0B3F5005F0ED0B3F5006F16D02D
:101C200020E000BF184BDB6A03F08003002BF9D0E3
:101C3000154B03225A6215E000BF134BDB6A03F415
:101C40000073002BF9D0104B04225A620AE000BF47
:101C50000D4BDB6A03F00803002BF9D00A4B02227C
:101C60005A6200BF094B1B6803F00103002B02D12D
:101C7000054B02221A627B68002B01D0FFF776FF2A
:101C80000837BD4680BD00BF00800C40E400002046
:101C900080B483B000AF174B1B699BB203F03F03C6
:101CA0009BB21B02FB80134B9B699BB203F0F003BA
:101CB0009AB2FB881343FB800E4BDB6903F0F00301
:101CC0001B099AB2FB881343FB80FB88B3F5827F24
:101CD00003D3FB88B3F5017F01D1012300E000238A
:101CE00003F00103DBB218460C37BD465DF8047BF8
:101CF000704700BFD0FF0FE080B586B000AF03464D
:101D0000FB711F4BDA6A1F4B1A601F4B1E4A126988
:101D100042F004021A61FFF7BBFF0346FB75FB7D2F
:101D2000002B11D0194B1A68194B1340FB60174B4D
:101D3000FA68C3F88020154B5B6823F046033B61CB
:101D4000124B3A69C3F8842030BFFB7D002B05D0CD
:101D50000E4BFA681A600D4B3A695A60FB79002BFA
:101D600002D0FFF71DFF07E0064B1B6803F48063FA
:101D7000002B01D1FFF7F4FE1837BD4680BD00BF30
:101D800000800C40E400002000ED00E000E100E0F5
:101D90009CF1FD0080B400AF034BDA6A034B1A607C
:101DA000BD465DF8047B704700800C40E4000020D5
:101DB00080B487B000AFF860B9607A60FB6803F167
:101DC0000473DA00BB6813449B007B617B697A680B
:101DD0001A601C37BD465DF8047B704780B485B03F
:101DE00000AFF860B9607A60FB681A68BB68DB43D3
:101DF0001A407B681A43FB681A601437BD465DF8C9
:101E0000047B704780B483B000AF03463960FB7138
:101E1000FB79002B0DD0FB79012B0AD0FB79022B2B
:101E200007D0FB79032B04D0FB79042B01D0FB797D
:101E3000052B0948FA793B68012101FA03F3194699
:101E40001346DB0013449B000344103359600C37E6
:101E5000BD465DF8047B70470060004080B483B0ED
:101E600000AF03463960FB71FB79002B0DD0FB7985
:101E7000012B0AD0FB79022B07D0FB79032B04D06E
:101E8000FB79042B01D0FB79052B0948FA793B68D3
:101E9000012101FA03F319461346DB0013449B00AA
:101EA0000344103319600C37BD465DF8047B70475E
:101EB0000060004080B584B000AF39600146F97120
:101EC000BA717B71FB79002B0DD0FB79012B0AD005
:101ED000FB79022B07D0FB79032B04D0FB79042B71
:101EE00001D0FB79052B3B68072B10D83B689B0082
:101EF0000F2202FA03F31A46F9793B689B0001FAB4
:101F000003F31A4811461A46FFF768FF12E03B68D0
:101F1000083BFB60FB689B000F2202FA03F31A46A2
:101F2000F979FB689B0001FA03F3114811461A4640
:101F3000FFF754FFBB790F4839681A46FFF738FF9F
:101F40007B790D4839681A46FFF732FF0B4B3A6828
:101F5000012101FA02F2C3F81C213B7E08483968CE
:101F60001A46FFF725FF1037BD4680BD00610040CF
:101F700004610040086100400C61004000600040C6
:101F80001061004080B584B000AFB9607B6003464B
:101F9000FB731346BB73FB7B002B0DD0FB7B012B2C
:101FA0000AD0FB7B022B07D0FB7B032B04D0FB7BEF
:101FB000042B01D0FB7B052BBB7B002B0DD07B685A
:101FC000002B05D0FB7B1846B968FFF747FF04E0FC
:101FD000FB7B1846B968FFF715FFBB68072B18D8BD
:101FE000FA7B1346DB0013449B00043303F1804368
:101FF00003F5C043BA6892000F2101FA02F21146BC
:10200000B87BBA68920000FA02F21846FFF7E6FEC3
:102010001DE0FA7B1346DB0013449B00083303F1F9
:10202000804303F5C043BA6802F18042083A920047
:102030000F2101FA02F21146B87BBA6802F1804220
:10204000083A920000FA02F21846FFF7C7FEBB7B7F
:10205000002B0DD17B68002B05D0FB7B1846B9689F
:10206000FFF7FCFE04E0FB7B1846B968FFF7CAFEE9
:102070001037BD4680BD00BF80B483B000AF0346BB
:10208000FB71FB79002B06D0084B084A126842F01E
:1020900001021A6005E0054B044A126822F00102B1
:1020A0001A600C37BD465DF8047B704700A00840FD
:1020B00080B487B000AFF860B9607A60FB6803F164
:1020C0000473DA00BB6813449B007B617B697A6808
:1020D0001A601C37BD465DF8047B704780B584B03C
:1020E00000AF7860184B5B68FB600020FFF7C4FF0F
:1020F000FB6823F4830323F01F03FB607B685B68AA
:10210000FA681343FB607B681B7AFA681343FB6031
:102110007B685B7AFA681343FB607B68DB68FA686C
:102120001343FB607B681B8AFA681343FB60064B12
:10213000FA685A607B681B78002B02D00120FFF7F9
:102140009BFF1037BD4680BD00A0084080B485B01D
:1021500000AF78600D4B5B68FB60FB6823F4803355
:10216000FB607B68002B08D0B3F5803F00D005E012
:10217000FB6843F48033FB6000E000BF034BFA6868
:102180005A601437BD465DF8047B704700A00840D4
:1021900080B483B000AF02460B46FA807B717B7936
:1021A000002B06D0094B094A9168FA880A439A60C5
:1021B00006E0064B054A9168FA88D2430A409A60C5
:1021C0000C37BD465DF8047B704700BF00A0084097
:1021D00080B584B000AFF860B9601346FB71FB684E
:1021E000072B00F2C38001A252F823F00D22000059
:1021F000392200006522000091220000BD2200006B
:10220000E92200001523000041230000BB681F2BBA
:1022100007DCBA68FB79574811461A46FFF748FFB2
:10222000A5E0BB68203BBB60BA68FB795248114609
:102230001A46FFF73DFF9AE0BB681F2B07DCBA6820
:10224000FB794E4811461A46FFF732FF8FE0BB6814
:10225000203BBB60BA68FB79494811461A46FFF734
:1022600027FF84E0BB681F2B07DCBA68FB79454871
:1022700011461A46FFF71CFF79E0BB68203BBB60A4
:10228000BA68FB79404811461A46FFF711FF6EE025
:10229000BB681F2B07DCBA68FB793C4811461A461D
:1022A000FFF706FF63E0BB68203BBB60BA68FB79C1
:1022B000374811461A46FFF7FBFE58E0BB681F2B54
:1022C00007DCBA68FB79334811461A46FFF7F0FE7F
:1022D0004DE0BB68203BBB60BA68FB792E481146D5
:1022E0001A46FFF7E5FE42E0BB681F2B07DCBA6821
:1022F000FB792A4811461A46FFF7DAFE37E0BB6839
:10230000203BBB60BA68FB79254811461A46FFF7A7
:10231000CFFE2CE0BB681F2B07DCBA68FB79214895
:1023200011461A46FFF7C4FE21E0BB68203BBB60A4
:10233000BA68FB791C4811461A46FFF7B9FE16E049
:10234000BB681F2B07DCBA68FB79184811461A4690
:10235000FFF7AEFE0BE0BB68203BBB60BA68FB79C1
:10236000134811461A46FFF7A3FE00E000BF1037DE
:10237000BD4680BD40A0084050A0084044A0084091
:1023800054A0084048A0084058A008404CA008406D
:102390005CA00840CCA00840B4A00840D0A00840F1
:1023A000B8A00840D4A00840BCA00840D8A008406D
:1023B000C0A0084080B487B000AFF860B9607A6010
:1023C000FB68072B00F2AC8001A252F823F000BF9B
:1023D000F123000015240000392400005D240000D2
:1023E00081240000A9240000D1240000F924000069
:1023F0004E4B1B6C7B61BB68DB437A6913407B618E
:10240000BA687B6813407A6913437B61474B7A69EA
:102410001A6486E0454B5B6C7B61BB68DB437A6981
:1024200013407B61BA687B6813407A6913437B6110
:102430003E4B7A695A6474E03C4B9B6C7B61BB6891
:10244000DB437A6913407B61BA687B6813407A6921
:1024500013437B61354B7A699A6462E0334BDB6CE2
:102460007B61BB68DB437A6913407B61BA687B6838
:1024700013407A6913437B612C4B7A69DA6450E02C
:102480002A4BD3F8CC307B61BB68DB437A691340BD
:102490007B61BA687B6813407A6913437B61234B85
:1024A0007A69C3F8CC203CE0204BD3F8D0307B6174
:1024B000BB68DB437A6913407B61BA687B68134071
:1024C0007A6913437B61194B7A69C3F8D02028E0FD
:1024D000164BD3F8D4307B61BB68DB437A69134079
:1024E0007B61BA687B6813407A6913437B610F4B49
:1024F0007A69C3F8D42014E00C4BD3F8D8307B6150
:10250000BB68DB437A6913407B61BA687B68134020
:102510007A6913437B61054B7A69C3F8D82000E0E0
:1025200000BF1C37BD465DF8047B704700A0084023
:1025300080B487B000AFF860B9607A60FB68072BA1
:1025400000F2AC8001A252F823F000BF6D2500001C
:1025500091250000B5250000D9250000FD250000CB
:10256000252600004D260000752600004E4B1B6DF1
:102570007B61BB68DB437A6913407B61BA687B6827
:1025800013407A6913437B61474B7A691A6586E089
:10259000454B5B6D7B61BB68DB437A6913407B61B4
:1025A000BA687B6813407A6913437B613E4B7A6952
:1025B0005A6574E03C4B9B6D7B61BB68DB437A6979
:1025C00013407B61BA687B6813407A6913437B616F
:1025D000354B7A699A6562E0334BDB6D7B61BB6892
:1025E000DB437A6913407B61BA687B6813407A6980
:1025F00013437B612C4B7A69DA6550E02A4BD3F8A0
:10260000B4307B61BB68DB437A6913407B61BA6895
:102610007B6813407A6913437B61234B7A69C3F863
:10262000B4203CE0204BD3F8B8307B61BB68DB437F
:102630007A6913407B61BA687B6813407A691343F7
:102640007B61194B7A69C3F8B82028E0164BD3F8A0
:10265000BC307B61BB68DB437A6913407B61BA683D
:102660007B6813407A6913437B610F4B7A69C3F827
:10267000BC2014E00C4BD3F8C0307B61BB68DB435B
:102680007A6913407B61BA687B6813407A691343A7
:102690007B61054B7A69C3F8C02000E000BF1C379E
:1026A000BD465DF8047B704700A0084080B483B04D
:1026B00000AF7860064B064A526822F4E0117A684F
:1026C0000A435A600C37BD465DF8047B704700BF73
:1026D00000A0084080B487B000AFF860B9607A60AD
:1026E000FA68114B9A4208D1BB68012B05D87B6868
:1026F0001B0C1B04002B00D100BFBB68002B02D0B9
:10270000012B04D00AE0FB6810337B6103E0FB6817
:1027100014337B6100BF7B697A681A601C37BD4641
:102720005DF8047B704700BF0020084080B483B090
:1027300000AF78600B46FB70FB78002B03D07B6802
:1027400001225A6002E07B6802225A600C37BD46C3
:102750005DF8047B704700BF80B485B000AF78603F
:1027600039600023FB603B681B7883F00103DBB218
:10277000002B08D07B689B6803F00103002B02D07C
:102780007B6802225A603B685B78002B03D0FB68B1
:1027900043F48053FB603B689B78002B03D0FB68BD
:1027A00043F48063FB603B68DB78002B03D0FB685D
:1027B00043F40063FB603B681B79002B03D0FB688C
:1027C00043F40073FB603B685B79002B03D0FB682C
:1027D00043F48073FB603B689B79002B03D0FB685C
:1027E00043F04003FB603B68DB79002B03D0FB68C0
:1027F00043F08003FB603B681B7A9B00FA6813433D
:10280000FB603B685B7A1B01FA681343FB603B6823
:102810009B7AFA681343FB607B68FA681A603B682E
:102820001B78002B08D07B689B6803F00103002B0A
:1028300002D17B6801225A601437BD465DF8047BE3
:10284000704700BF80B487B000AFF860B9607A60AD
:10285000FB6803F10473DA00BB6813449B007B61DF
:102860007B697A681A601C37BD465DF8047B704747
:1028700080B485B000AF786039607B68012B05D8E3
:102880003B6803F07F43002B00D100BF7B68002B27
:1028900002D0012B03D008E0064BFB6002E0064BA0
:1028A000FB6000BFFB683A681A601437BD465DF8EC
:1028B000047B7047080008400C00084080B582B0D7
:1028C00000AF0346FB71FB79034800211A46FFF76E
:1028D000B9FF0837BD4680BD0000084080B485B010
:1028E00000AF78607B681B78002B02D00123FB606F
:1028F00001E00023FB607B685B78002B03D0FB6862
:1029000043F00203FB607B689B78002B03D0FB68DD
:1029100043F00403FB60044BFA681A601437BD46A9
:102920005DF8047B704700BF0000084080B485B0AC
:1029300000AF7860194B5B69DBB203F00F03DBB2C9
:102940009B00FB73154B1B6903F0C0039B09DAB2B4
:10295000FB7B1343FB737B68FA7B9A700F4B1B69FD
:10296000DBB203F03F03DAB27B685A700B4B9B6912
:10297000DBB223F00F03FB73084BDB6903F0F003BA
:102980001B09DAB2FB7B1343FB737B68FA7B1A707B
:102990001437BD465DF8047B704700BFD0FF0FE0E1
:1029A00080B483B000AF786039607A683B4B9A425C
:1029B0000BD07A683A4B9A4207D07A68394B9A42E0
:1029C00003D07A68384B9A4200D100BF3B681B782D
:1029D00083F00103DBB2002B02D07B6802225A6035
:1029E0007B6800225A623B689B781A063B68DB785A
:1029F0001B041A433B689B799B021A433B68DB79B3
:102A00001B021A433B681B7A1A433B685B78002B16
:102A100001D0402300E000231A433B685B7A002B7F
:102A200001D0802300E000231A433B689B7A002BEF
:102A300001D0202300E000231A433B68DB7A002BFF
:102A400001D0102300E000231A433B681B79002BC0
:102A500002D04FF4005300E000231A433B685B7937
:102A6000002B02D04FF0805300E000231A433B6854
:102A70001B7B002B01D0082300E000231A437B6856
:102A80001A603B681B78002B02D07B6801225A60D9
:102A90000C37BD465DF8047B704700BF0000014065
:102AA0000004014000080140000C014080B483B0E4
:102AB00000AF0346FB71FB79002B03D0054B0122CD
:102AC0001A6602E0034B00221A660C37BD465DF819
:102AD000047B704700A0084080B483B000AF7860EA
:102AE00000BF054B5A6E7B681340002BF9D10C37A1
:102AF000BD465DF8047B704700A0084080B483B0F9
:102B000000AF7860054B054A916A7A68D2430A4063
:102B10009A620C37BD465DF8047B704700A0084000
:102B200080B500AF002028490022FFF743FC0120B8
:102B300025490022FFF73EFC022023490022FFF72F
:102B400039FC032020490022FFF734FC04201E49F1
:102B50000022FFF72FFC05201B490022FFF72AFC6B
:102B6000062019490022FFF725FC072016490022FC
:102B7000FFF720FC0020FF210022FFF7D9FC0120F5
:102B8000FF210022FFF7D4FC0220FF210022FFF7E3
:102B9000CFFC0320FF210022FFF7CAFC0420FF2105
:102BA0000022FFF7C5FC0520FF210022FFF7C0FC33
:102BB0000620FF210022FFF7BBFC0720FF21002297
:102BC000FFF7B6FC80BD00BF00F00FF080B500AF8E
:102BD000072026490022FFF7EDFB062024490022AA
:102BE000FFF7E8FB052022490022FFF7E3FB042062
:102BF0001F490022FFF7DEFB03201D490022FFF7DB
:102C0000D9FB02201A490022FFF7D4FB0120184902
:102C10000022FFF7CFFB00204FF020410022FFF7FA
:102C2000C9FB072007210022FFF782FC06200721AD
:102C30000022FFF77DFC052007210022FFF778FC2A
:102C4000042007210022FFF773FC03200721002244
:102C5000FFF76EFC022007210022FFF769FC01202C
:102C600007210022FFF764FC00BF80BD00E00F5089
:102C700000E00FF080B582B000AF0346FB7125483D
:102C80000121FEF773FB24480321FEF797FD23483B
:102C90004021FEF743FA0120FEF7E2FE2048012121
:102CA000FEF764FB4FF0FF30FFF728FF1D48FFF7EA
:102CB00015FA08200121FFF76BFA10200121FFF718
:102CC00067FA80200121FFF763FA4FF48070012139
:102CD000FFF75EFA4FF400700121FFF759FAFB7914
:102CE000002B0DD04FF44020FFF7E0FC4FF4803074
:102CF000FFF72CFA0C4B0C4AD26F42F00802DA674D
:102D0000FFF70EFF4FF0FF30FFF7E6FE0837BD4636
:102D100080BD00BF004302000200180070002400C4
:102D2000003626003CB5000000800C4080B58AB01B
:102D300000AF7860786807F01FFC0346BB61002392
:102D40003B624FF0FF30FFF7C7FE0120FFF7AEFEFA
:102D5000FFF73CFF00233B6246E03A6ABB699A42B8
:102D600003DA7B681B787B6201E020237B627B6A4D
:102D7000203B7B62214B7A6A33F81230FB820023BE
:102D8000FB6128E01E493A6A1346DB009B1A9B0050
:102D9000CA18FB69134408339B793B6118493A6AA6
:102DA0001346DB009B1A9B00FA6913440B441B7803
:102DB000FB60FA8AFB6942FA03F303F00103002B7C
:102DC00006D0FA683B69104619460122FFF700FA5F
:102DD000FB690133FB61FB690D2BD3DD7B6801339C
:102DE0007B603B6A01333B623B6A062BB5DD00200A
:102DF000FFF75CFE2837BD4680BD00BF84B40000ED
:102E000064B30000064880470649074A074B9A42C8
:102E1000BEBF51F8040B42F8040BF8E7FDF788F940
:102E2000B52F0000E4C8000000000020B40000201E
:102E3000FEE700BF80B400AF044BDB6C1B0EDBB2BF
:102E40001846BD465DF8047B704700BFB081E00FB7
:102E500080B582B000AF00F029F878600C4B1B6899
:102E600003F4E0339B0B01337A68B2FBF3F37B602E
:102E7000074B5B6803F00F037A6822FA03F37B6069
:102E8000044B7A681A607B6818460837BD4680BDD7
:102E900000800C400401002080B400AF024B1846B3
:102EA000BD465DF8047B7047006CDC0280B582B0E3
:102EB00000AF2F4BDB6A03F47053B3F5805F0AD089
:102EC000B3F5005F03D0B3F5006F08D00BE0294BDA
:102ED0001B687B6047E04FF400437B6043E0264B78
:102EE0001B687B603FE0224BDB6803F4E063B3F5D3
:102EF000007F1BD0B3F5007F05D8002B24D0B3F59D
:102F0000807F16D02BE0B3F5806F09D0B3F5A06FAA
:102F100003D0B3F5407F06D021E0184B7B6021E061
:102F2000174B7B601EE0174B7B601BE0164B7B60F2
:102F300018E0FFF77FFF0346122B02D9134B7B608B
:102F400010E0134B7B600DE0FFF774FF0346122B7C
:102F500002D9104B7B6005E00F4B7B6002E0002341
:102F60007B6000BF00BF7B6818460837BD4680BD48
:102F700000800C403800002034000020003FAB01EE
:102F8000406F4001809FD500C0D8A70040B56400C5
:102F9000C0CF6A00804F120040420F0080B400AFE3
:102FA000034B1B681846BD465DF8047B704700BFA5
:102FB0003400002080B400AFBD465DF8047B70474C
:102FC00080B400AF4FF400431846BD465DF8047B63
:102FD000704700BF80B400AF4FF47A731846BD4607
:102FE0005DF8047B704700BF80B400AF034B1B68E3
:102FF0001846BD465DF8047B704700BF38000020CE
:1030000003685A004CBF43F0004323F000431844C8
:10301000704700BF2DE9F04F064683B0914621B3BB
:10302000013901918846002707EB080404EBD474AA
:103030006410E50006EB050B5846FFF7E1FF019B26
:103040008246A34205F10800304419D0FFF7D8FFAB
:10305000CA4500F1FF3004D9BC420BD004F1FF385F
:10306000E2E7484502D2671CDEE78B46584603B0CC
:10307000BDE8F08F4FF0000B584603B0BDE8F08F6D
:10308000CA45E9D8F2E700BF012807D0022807D0D7
:10309000044B00280CBF18460020704702487047B8
:1030A00002487047C5370000CD370000D537000013
:1030B00030B5274B83B004468D1E002B42D02846E6
:1030C00001A9AFF30080034623B32A460199FFF715
:1030D000A1FF054618B3FFF793FF6B68A064012BAF
:1030E00012D0002B05F1040028DBFFF789FF002335
:1030F000E06423650368002B16DBFFF781FF0023E4
:103100002061184603B030BD002323610523184613
:1031100003B030BD23610923184603B030BD092335
:103120002061184603B030BDC3F30360FFF7ACFF66
:103130000028206114BF00230923E2E70123E06493
:103140002365D7E7034B04481B1ADB100193BCE748
:1031500000000000E4C800008CC70000036810B540
:10316000DA07044606D49B0700F1480009D500F0B1
:103170006FFC2368590709D51A070ED5DB0613D54E
:1031800010BD00F05DFC23685907F5D404F1D000B0
:1031900000F066FC23681A07F0D404F5A87000F06C
:1031A00067FC2368DB06EBD404F5E870BDE810404B
:1031B00000F0A2BC03680BB1184470471846704772
:1031C00009207047704700BF70B504460D4608E0FF
:1031D0002A6C23696261012021462A469847082803
:1031E00008D12046296CFFF763FF06460028EFD080
:1031F00006F0D6FF0728FBD13046296CFFF7E2FF27
:10320000281D00F011FC00BF2DE9F047ADF5727DDF
:103210000C1D03AE054617460FCC0FC60FCC0FC6CC
:103220000FCC0FC694E80F0002AC4FF0000ED5F89B
:103230000C80D5F8189086E80F002846216CC4F859
:1032400000E0FFF735FF002F064614BF0A270927C5
:1032500086B1A06B2A468DE8100247F01001606429
:103260002B460120C04700282FD130460DF5727D36
:10327000BDE8F087236C21466B614FF4F0727AA8A9
:1032800007F045F82B6929467AAA38469847889B63
:1032900082468DE810023946636401202A462B4697
:1032A000C04790B920467AA94FF4F07207F02FF882
:1032B000BAF1080F06D12846216CFFF7F9FE09275D
:1032C0000646C5E7BAF1070F04D009200DF5727D57
:1032D000BDE8F0873046216CFFF774FF03A800F0CB
:1032E000A3FB00BF406C7047F0B5CB6BF9B00B642B
:1032F0000E1D01AD0F4604460FCE0FC50FCE0FC5F4
:103300000FCE0FC596E80F004FF0FF3685E80F008F
:10331000009606E0236921466A4698470828054634
:1033200008D120461099FFF7C3FE0028F2D00920EB
:1033300079B0F0BD6846FFF711FF062DF7D12046A2
:103340003946FFF741FF00BF30B4DD6BC1608261D9
:1033500019461D64002230BCFFF756BF70B54369A3
:10336000C66804460D460B6426B10122FFF74CFFE8
:1033700006F016FF0369214602202A4698470728CF
:1033800007D0082803D120462946FFF71DFF06F085
:1033900007FF3046296CFFF715FF281D00F044FB9E
:1033A000C26810B432B1CC6B00220C645DF8044BDF
:1033B000FFF72ABF5DF8044B96E700BF704700BFD8
:1033C00008B5836813B101460120984708BD00BFC6
:1033D00010B4042909D8DFE801F00703080303004B
:1033E00001205DF8044B70471BB102205DF8044BCF
:1033F00070470F2AF9D800EB820252681846019BE9
:103400001A60EEE700B585B00A4603AB00210093D1
:103410000B46FFF7DDFF039805B05DF804FB00BF26
:1034200010B4042909D8DFE801F0070308030300FA
:1034300001205DF8044B70471BB102205DF8044B7E
:1034400070470F2AF9D8019C00EB820221681846C8
:103450005160EEE710B584B004AB43F8042D0C4680
:103460000021009322460B46FFF7DAFF04B010BD9F
:10347000F0B5D36BADF50F7D1364151D17AC074682
:103480000E460FCD0FC40FCD0FC40FCD0FC495E85E
:103490000F004FF0FF3584E80F00169510E016A8D6
:1034A000FFF7D8FF314616A8B847694616AA78B97B
:1034B000049B08209847052804460AD0092807D00D
:1034C00026996846FFF7F4FD6A460C210028E6D0ED
:1034D000092416A8FFF742FE20460DF50F7DF0BD2A
:1034E0002DE9F04FCE6C0C4631688BB004361D468A
:1034F00090460791089600F00309002B40F0898060
:103500000902032307918DF825508DF82430236D8F
:10351000B9F1020F08BFA66B13F0010342D100F00E
:103520000800C0B2039002933768002F3CD0022DF0
:103530006BD03788B6F802A00436A36C2AF0010BD2
:1035400040460F219B44FFF75DFF834536D827F0A7
:1035500001039B440AF0010A07F00107584547EAB6
:103560004A072CBF00200120012F31D060D3022F49
:1035700020D1336823F000410191B9F1000F40F0F0
:10358000858030B1039A002A00F08D80002900F078
:10359000B080002BC0F28580019B03F1010A06EB8D
:1035A0008A06C1E700210291022D49DDFFF708FEDE
:1035B00000284BD009200BB0BDE8F08F0AF0010ABB
:1035C00007F0010747EA4A07012F4FF00000CDD16D
:1035D000B9F1000F41D1B0B196E80C00D70F9A1C99
:1035E000E8D004F158010133069100F0AD80301DA0
:1035F000FFF7E0FD3A46014606AB204600F0ACFC82
:10360000002840F0CF8008368EE7D6F804A00836B0
:1036100093E7022B3FF77BAF0B0CDFB209040222CA
:103620008DF8253006EB870607918DF824206EE78C
:10363000B9F1000F02D0002840F09080043673E703
:10364000404607A900F0F0FA0028B3D1029A002AF8
:1036500059D108200BB0BDE8F08F40460D21276AF4
:10366000FFF7D0FE8742CED1A36A9E42CBD130462F
:10367000FFF7C6FC0F2102464046FFF7EBFE40462F
:1036800022460021FFF7E6FE072094E740460D2181
:10369000276AFFF7B7FE874245D03368002BBFF695
:1036A0007BAF043678E7019919B304F1580CCDF8D3
:1036B00010900595371DDDF80CB0DDF804906546D7
:1036C00002E0CA4515D0D34638460695FFF772FD8D
:1036D0000022014606AB204600F03EFC0BF1010A39
:1036E00004370028EDD0019BDDF810905B45059D67
:1036F000D3D140460D21FFF785FE069B2062A662CE
:103700006362062057E70F214046FFF77BFE0E213C
:1037100002464046FFF79EFE40460F21284AFFF72B
:1037200099FE072047E7A36A9E42B6D10422019979
:103730000027B318A162E762226363633368BB4268
:103740001FDB0122029227E740460D21FFF75AFEB8
:103750002062069B6362A66206202CE73046FFF7D4
:103760004FFC04360546A663204600F053FC0028B3
:103770003FF420AF40462A460F21FFF76BFE07209B
:1037800019E7481C06EB8000FFF73AFC0F210246C0
:103790004046FFF75FFE404639462246FFF75AFE95
:1037A000072008E707460D214046FFF72BFE022FB2
:1037B0002062CED1069A234643F82C2F6362CAE7D3
:1037C0004B4800000023FFF78BBE00BF0123FFF72B
:1037D00087BE00BF0223FFF783BE00BF2DE9F04183
:1037E0000446C4B004290BD8DFE801F059030A30BD
:1037F0000E00012B4FEA124596B266D0052B6BD016
:10380000022044B0BDE8F081002BF9D1102AF7D88E
:103810002368D90600F1D38022AE3046019200F031
:1038200075F9A56B019A0023012000FA03F11142FA
:1038300003D02968043546F823100133042BF4D152
:103840003046A56300F058F90020DAE7032BD7D102
:10385000150C97B27B19102BD2D823681E0700F1E4
:10386000BF8022AE304600F025F9D4F838E07F0062
:1038700006EBC5007B1E72465FB1CEEB0000AEF1D9
:10388000040252F8041F013B5D1C8150F9D10EEB7C
:1038900087023046A26300F0EBF80020B1E7002B6E
:1038A000AED1A56B96B2012000FA03F1314204D0EB
:1038B0002F6804EB830104354F600133102BF3D1E3
:1038C00012F4005075D1A5639BE77219102A97D89E
:1038D0000F2D95D8002708E07719202F90D80F2DAD
:1038E00069D9374646B30F2D11D82268D0070ED5B7
:1038F00022F00101052B216000F08C8022F00302F0
:10390000204640F8482B019300F09EF8019B17B128
:10391000226851076CD4012B74D00F2D04D822A833
:10392000019300F099F8019B37B102A8019300F0D0
:103930009BF8019BC5F11006D4F83880002EC446D0
:1039400012DD22AA4FEA460C02EBC506C8EB0606BA
:103950000CF1FF31A8F1040252F8040F0139B05004
:10396000481CF9D108EB8C0CB7B144AA102D2CBF20
:103970002846102002EBC0004FEA4708A0F5C470AB
:1039800008F1FF32614651F8046B013A40F8046BCC
:10399000561CF8D10CEB880C012B1AD00F2DC4F853
:1039A00038C002D822A800F053F817B102A800F0DE
:1039B00057F8002025E7102F8CD9103F93E723F00C
:1039C0001003236004F5E870019200F09FF8019A5B
:1039D00022E70CF10403A36322A800F031F8E8E722
:1039E00023F00803236004F5A87000F063F838E7BB
:1039F00022F00402204640F8D02B019300F034F866
:103A0000019B88E722A8019300F01EF8019B002F7C
:103A100090D191E741F00201204640F8481B019304
:103A200000F01AF8019B72E700F1340191E83800C8
:103A30009C46A6464CF8045D90E8FF0FE54600BDA5
:103A400090EC210B704700BF80EC210B704700BF4A
:103A500090EC200B704700BF80EC200B704700BF3C
:103A6000D0EC200B704700BFC0EC200B704700BFAC
:103A7000F0EC0201F0EC0211F0EC0221F0EC02316A
:103A8000F0EC0241F0EC0251F0EC0261F0EC02715A
:103A9000F0EC0281F0EC0291F0EC02A1F0EC02B14A
:103AA000F0EC02C1F0EC02D1F0EC02E1F0EC02F13A
:103AB000704700BFE0EC0201E0EC0211E0EC0221F3
:103AC000E0EC0231E0EC0241E0EC0251E0EC02619A
:103AD000E0EC0271E0EC0281E0EC0291E0EC02A18A
:103AE000E0EC02B1E0EC02C1E0EC02D1E0EC02E17A
:103AF000E0EC02F1704700BFB0FC0181B0FC019125
:103B0000B0FC01A1B0FC01B1704700BFA0FC018175
:103B1000A0FC0191A0FC01A1A0FC01B1704700BF75
:103B2000EC4600B52DE900502DE9FF1F4FF00003D2
:103B30002DE90C0001A9FFF7D7FBDDF840E012B03A
:103B4000704700BFEC4600B52DE900502DE9FF1F7E
:103B50004FF000032DE90C0001A9FFF7FFFBDDF892
:103B600040E012B0704700BFEC4600B52DE90050B0
:103B70002DE9FF1F4FF000032DE90C0001A9FFF70D
:103B80000FFCDDF840E012B0704700BFEC4600B516
:103B90002DE900502DE9FF1F4FF000032DE90C0027
:103BA00001ABFFF7D1FBDDF840E012B0704700BF7A
:103BB000EC4600B52DE900502DE9FF1F4FF0000342
:103BC0002DE90C0001AAFFF753FCDDF840E012B02C
:103BD000704700BF037A1BB9437A43B9B0207047DE
:103BE0000268013B037213020360100E70474268C3
:103BF000013B4372111D12680323037213024160DB
:103C00000360100E704700BF00B585B003AB002104
:103C100000930C220B46FFF7DBFB039805B05DF821
:103C200004FB00BFFFF7F0BF2DE9F043064685B067
:103C30000D464FF000082846FFF7CCFFB028044699
:103C400000F0AC8020F07F0212F0FF0120D000F0E5
:103C5000F002802A73D0902A36D0A02A42D0B02A0F
:103C600056D0C02A00F0828000F0F803D02B0BD190
:103C700000F00704621C42F40022304601210523B3
:103C8000FFF7ACFD0028D6D0092005B0BDE8F083D1
:103C900003AF4FEA80090B46009730460D22FFF72D
:103CA00097FB5FFA89F9039B09F1040960064CBF91
:103CB000C9EB03034B440393002100970B463046A6
:103CC0000D22FFF7ADFBB6E700F00D030D2BDBD0A7
:103CD00003AF002100F00F0200970B463046FFF7BC
:103CE00077FBE9E7C2434FF47F6302F0070243FA30
:103CF00002F2010702EA03024FF0000148BF42F45A
:103D000080420B463046FFF769FD0028BCD192E7A0
:103D1000B12848D0B22851D0B3287DD000F0FC03A0
:103D2000B42BB1D000F007020132012142F400228D
:103D30000B463046FFF752FD0028A5D17BE7284609
:103D4000FFF748FF24022043B0F5004F9CD0040148
:103D50000021A2B20B463046FFF740FD002893D168
:103D600014F4004F18BF4FF0010864E7C6285FD075
:103D7000C72869D000F0F803C02B78D0C82800F01D
:103D80008E80C92880D12846FFF724FF00F00F035A
:103D9000013300F0F00243EA02326EE7B8F1000F9F
:103DA0006CD0002071E72846FFF714FF0246002878
:103DB0003FF46AAF10F0F001BAD065E7002103AF1D
:103DC0000D220B4600973046FFF702FB2846FFF70F
:103DD00001FF02064FF002040DD500F07F0000FA4B
:103DE00004F2039B284613440393FFF7F3FE0306F4
:103DF00004F10704F1D400F07F0000FA04F4039BFF
:103E0000002103F501731C4400970B4630460D2238
:103E10000394FFF705FB0EE72846FFF7DBFE00F0F3
:103E20000F03013300F0F002012143EA02327FE781
:103E30002846FFF7CFFE00F00F03013300F0F00239
:103E4000032143EA023273E72846FFF7C3FE024626
:103E500000283FF419AF10F0F0037FF415AF30469F
:103E60000421FFF7BBFC00287FF40EAFE3E600F06F
:103E70000F020132032142F4202259E703AC4146EC
:103E80000E22434600943046FFF7A2FA00943046D3
:103E900041460F224346FFF7C3FA4046F5E628465F
:103EA000FFF798FE00F0F00200F00F03103201332C
:103EB00043EA0232E1E600BF10B5C36C84B00322CE
:103EC0005C688DF80C20DA7908460833240201A9D1
:103ED00001948DF80D200293FFF7A6FE04B010BDEB
:103EE00008B5FFF79FFE806C08BD00BF08B5FFF75F
:103EF00099FEC36CDA7903EB8200083008BD00BF7D
:103F000008B506F04DF900BF08B506F049F900BF45
:103F10001EB400F09CF81EBCFFF714FE0378472B7C
:103F200017D143784E2B14D18378552B11D1C378F8
:103F3000432B0ED10379432B0BD143792B2B08D183
:103F400083792B2B05D1C07901288CBF002001205B
:103F500070470020704700002DE9F3419846037830
:103F60000446472B0F46C67914D143784E2B11D106
:103F70008378552B0ED1C378432B0BD10379462B75
:103F800008D143794F2B05D18379522B02D10EB939
:103F9000012205E02046FFF7C1FF00282FD00022B4
:103FA0000023002101917AB983B9012E0ABF54F888
:103FB000203CA4F12003783B012E0CBF54F8204C88
:103FC00058341D68019402E0104D00E0104D2B683C
:103FD00028469B68984720B1019B02241B680193E7
:103FE00000E001243B6838461E69294601AA0123E6
:103FF000B04738B1019B2046C8F8003002E00246C5
:104000000123CEE702B0BDE8F08100BF50B500004B
:104010007CB5000070B5044600F032F80546204635
:10402000A4F12006FFF77AFF50B154F8043C0133A5
:10403000012B44F8043C08D1AB6844F8083C03E089
:10404000AB680BB100F018FBAE60012070BD70B51D
:1040500000F016F8846805460CB900F00DFB04F179
:1040600020063046FFF75AFF38B1E369013BE361B0
:1040700023B9A269AA60A36100E0A860304670BDC0
:1040800000487047E800002008B106F029B97047E1
:104090007FB5102302930368002415469E6900949F
:1040A0006B468DF8044003941268B0479DF80430C5
:1040B00003F00603062B05BF009B012020462B6062
:1040C00004B070BD0098904214BF012006207047D4
:1040D00010B5034B0446036000F0E2FA204610BD21
:1040E000B0B5000010B50446FFF7F2FF2046FFF719
:1040F000CBFF204610BD38B515461C4600F0E6FA49
:1041000028B10823E360062325602371012038BD10
:10411000F8B505460C4616461F4600F0D7FA40B9DA
:10412000032F07D8236820465B6929463246984703
:10413000F8BD0120F8BD2DE9F041069E1546089A0C
:10414000074696429846099C03D1079900F0BEFAAB
:1041500048B93846414600F0B9FA28B10123266033
:104160002571A37100E065710020BDE8F08130B5D4
:1041700000231A4610F8014B04F07F0595402406F1
:1041800043EA050302F10702F4D40B6030BD30B5F9
:1041900000231A4610F8014B04F07F0595402B438D
:1041A000250602F10702F5D41F2A06D8640604D5B5
:1041B0004FF0FF3404FA02F213430B6030BD502875
:1041C0002DE9F7438146884616461F4605D1D01C87
:1041D00020F0030050F8044B34E000F00F030C2BE8
:1041E00023D8DFE803F01A07121A1E222222220C1B
:1041F000161A1E00304601A9FFF7B9FF03E030464A
:1042000001A9FFF7C4FF019C11E0304630F8024BD2
:104210000DE0304630F9024B09E0304650F8044BCF
:1042200005E0346806F1080001E005F0B9FF4CB183
:1042300009F07003102B18BF4646344419F0800F64
:1042400018BF24683C6003B0BDE8F08308B503469E
:10425000FF2B08461CD003F07003202B0ED003D890
:10426000B3B1102B12D113E0402B0BD0502B0FD039
:10427000302B0BD1BDE80840FFF742BEBDE8084037
:10428000FFF742BEBDE80840FFF72ABE05F088FFF1
:10429000002008BD2DE9F04107460C460846394686
:1042A00016461D46FFF7D2FF324601462B462046F2
:1042B000BDE8F041FFF783BF73B50D4614460646CF
:1042C00010B1FFF70DFEFFE7206029786A1CFF2977
:1042D00005D03046231DFFF7DDFF024600E0606099
:1042E0001378501CFF2B237507D01023237501A9C9
:1042F000FFF73DFF019B034400E00023E3600378E8
:1043000001A963750130FFF732FF019B034423616C
:1043100002B070BD1FB50A4603AB002100930B46E7
:10432000FFF756F8039805B05DF804FB2DE9F04F50
:10433000002391B0049300F00303012B06460C46C2
:10434000154603D028D3022B1DD0DBE0030725D46C
:104350000F6A10460D21FFF7DDFF87421ED10623AD
:104360001DE0079A13449F424ED2089B002B6ED04B
:104370000B9A03EB0208099810B10E9B0138184400
:10438000B8F1000F69D120462946FFF795FD08B125
:10439000092069E1082067E1012300E0022306F01B
:1043A000080943EA090910AB43F82C4D002100939A
:1043B00028460C220B46FFF733F8B9F1060F0AD155
:1043C000D4F83080A66AB8F1000FD4F82CA00CBF46
:1043D00001270327D3E02846FFF788FD82460028FF
:1043E000D1D00AAA51462846FFF766FF294606465D
:1043F0009DF83C00FFF72AFF0F210C902846FFF79D
:1044000089FF20F00100471E0E9B9E4221D23246BA
:104410009DF83D1006AB0020FFF73CFF9DF83D10D6
:10442000024607AB0020FFF735FF08AB02469DF8B8
:104430003D100020FFF72EFF09A9FFF798FE0A9B09
:10444000069A064613449F428BD20E9EDCE798469E
:1044500091E74FF00008012704E1002800F00181F6
:1044600019F00801039111D0472323704E23637084
:104470005523A3704323E370462323714F236371B5
:104480005223A3710023E371002719E0E379012B84
:104490000CBF54F8203C04F158030493F4E70423C0
:1044A0000D9E0C9902FB136209ABFFF788FE099978
:1044B00000295FD064BB0898002800F0CC805844E5
:1044C00007A9FFF764FE08A98346FFF760FE079A75
:1044D000002A4DD023DD9DF83C00FF2814D000F0C9
:1044E0000703042B0ED801A151F823F09F440000CC
:1044F000054500000D4500009F44000001450000F7
:104500000823CDE705F04CFE0023C9E70223C7E7E7
:104510002046002204ABFFF71FFD58BBCBE70D9BE5
:1045200002F1010EBCB1039AAAB9049AA3EB8E0E54
:104530000692AEF1040656F8041F41B120463144FC
:10454000002206ABFFF708FD0028F4D0012181F01E
:104550000101C9B209E06FF0030C0CFB0EFE53F829
:104560000E10D1F1010138BF00210029A3D001E0D4
:104570000127A0E7079E032719F0010F5AD119F070
:10458000080907D0012F01D100F076F8002E24DAB7
:1045900000F07EF8012F02D1204600F047F9002EEE
:1045A0001BDA0AAA51462846FFF786FE9DF83C0012
:1045B0002946FFF74BFE6FF0030206FB02220D9B1C
:1045C0000C901A444B4652F8231009B10133FAE714
:1045D000A3620423E0622363626310AB002143F80B
:1045E000244D0A46009328460B46FEF719FF10ABF0
:1045F00043F8206D00210122009328460B46FEF768
:104600000FFF0F212846FFF785FE00F0010010ABD9
:1046100040EA080043F81C0D0021009328460F22B1
:104620000B46FEF7FDFE022F02D12046FFF7F2FCFB
:10463000072019E0022F3FF4A6AE28460D21049F63
:10464000FFF768FE67622062A662C4F82CA0C4F877
:104650003080062008E0002F3FF495AE0646022782
:104660008AE70227002687E711B0BDE8F08F00BF78
:1046700008B5804705F094FD08B5024B1868FFF7B0
:10468000F7FF00BF4000002008B58047FFF7F4FFA8
:1046900008B5024B1868FFF7F7FF00BF3C00002089
:1046A000014B0360704700BF28B600000020704730
:1046B000002070470020704710B5034B044603608C
:1046C000FFF7E2FC204610BD28B60000814208B585
:1046D0000ED0406803782A2B01D1002008BD49681C
:1046E0000B782A2B08BF013105F03CFF0028F4D1DC
:1046F000012008BDFFF7EABF10B5034B0446036075
:10470000FFF7E6FC204610BD48B6000010B5044691
:10471000FFF7F2FF2046FFF7B7FC204610BD2DE95A
:10472000F341089C07469442884616461D4605D12B
:104730001946FFF7CBFF08B1062007E0B8684146ED
:10474000036800941C6A32462B46A04702B0BDE8BD
:10475000F0812DE9F04F0E4685B01946834690460C
:1047600099460E9D109F119CFFF7B0FF824680B1C5
:10477000002E256084F8048006DB3544AF4214BF68
:1047800001270627A7710CE002360AD10123A37185
:1047900007E0BD4207D158460F99FFF797FF80B950
:1047A00001E0002010E0DBF808000F9A0368019296
:1047B000009502970394DC69314642464B46A04778
:1047C00002E084F80580504605B0BDE8F08FF8B5EA
:1047D00004460F4616461D46FFF78DFC38B9A06803
:1047E000394604683246A4692B46A047F8BD01202B
:1047F000F8BD0378472B17D143784E2B14D183781B
:10480000552B11D1C378432B0ED10379432B0BD1F8
:1048100043792B2B08D183792B2B05D1C079012823
:104820008CBF0020012070470020704710B504465F
:1048300048B100F03BF82046FFF7DBFF18B154F811
:10484000140CFFF715FFFFF717FF70B50646FFF7CB
:10485000D0FF18B156F8184C002501E00446012598
:10486000304600F023F80DB1FFF712FF2046FFF7A6
:104870000BFF0378472B17D143784E2B14D1837845
:10488000552B11D1C378432B0ED10379432B0BD178
:1048900043792B2B08D183792B2B05D1C0790128A3
:1048A0008CBF00200120704700207047F8B50446F7
:1048B000FFF7E6FB054606682046A4F12007FFF750
:1048C000D8FF20B90EB1FFF7D7FE2F6015E054F8DE
:1048D0000C3C2046002BB4BFC3F10103013344F864
:1048E0000C3C6B68B74203F1FF336B601CBF44F8AC
:1048F000106C2F60666AFEF761FD3046F8BD00005F
:104900001F4BF7B51A781F4C12B123681E4832E0CE
:1049100001221A7000F040F800282AD045680021D2
:104920002B784FF0FF322A2B08BF013502AB43F83A
:10493000042D28460A4605F0C3FB23680646D968BD
:10494000124805F09DFC019B0E4F13B93B683046A1
:1049500001E03B682846D96805F092FC23680C48C2
:10496000D96805F08DFC019B43B9304605F0B8FCD1
:1049700004E023680748D96805F082FC05F010FCC4
:10498000F4000020A4000020A1B60000BFB6000083
:10499000F0B60000F3B6000008B5FFF771FB006841
:1049A00030B190F82730012B04BF006878380068D8
:1049B00008BD000070B44C1E4A2C2CD8DFE804F06F
:1049C0003C3C3C3C2B2B2B2B26263C262626262605
:1049D000262626262626262B27272727272727276A
:1049E0003C26262626262B26273D3C2B3C27273DEA
:1049F0002B2B26263C3C3C3C3C263C3C263C2B2B93
:104A00002626262B2B2B2626263C3C00CAB14469A1
:104A10008569AC4202DB002070BC704704EB4405A2
:104A200006690134AD00446174190CD0715562609F
:104A3000A360204670BC70471AB1002BE7D118461E
:104A4000EAE71046E8E72046E6E700BF30B44369EE
:104A50008469A34209DA03EB430405690133A40026
:104A600043612B1901D001B112B9002030BC70474D
:104A70000020285559609A60184630BC704700BF26
:104A80002DE9F041C5680446884617462B780E4646
:104A900017E0562B22D04B2B2DD1236B0135002F45
:104AA00003F10603E56023630CBF1B211E210022D6
:104AB00013462046FFF77EFF3060D0B1E568061D43
:104AC0002B78722BE5D1236B0135002F03F10903FD
:104AD000E56023630CBF19211C21E8E7236B013536
:104AE000002F03F10903E56023630CBF1A211D2188
:104AF000DDE7BDE8F081BFB9462B15D1464513D09F
:104B00001D241E201C2108E01B2A10D0192A00D1C8
:104B1000197003F10408464506D0D8F800301A7819
:104B20001A2AF1D11C70F4E73046BDE8F081187004
:104B3000EFE700BF10B4C4680A462378522B10D0A8
:104B40004F2B03D008465DF8044B7047036B2021C0
:104B5000033303630134C46000235DF8044BFFF7A3
:104B600029BF036B1F2102330363F3E72DE9F041F3
:104B7000C268804614780F462E2C2BD013462E2C5C
:104B800017D15C78303CE4B2092C12D89C78981C80
:104B9000A4F13001C9B209291AD8DD1C2C782B46A2
:104BA000A4F13006F6B2092E05F10105F6D92E2C36
:104BB000E7D01146C8F80C309A1A4046FFF746FF76
:104BC0003A4603464B214046BDE8F041FFF7F2BEAE
:104BD0000346D4E75378A3F16101C9B219290CD86F
:104BE000911C0C780B46A4F16100C0B2192801F1A8
:104BF0000101F6D95F2CF4D0C1E75F2BBED1EFE7FE
:104C00002DE9F003C2681378532B03D00020BDE8D0
:104C1000F0037047531CC3605378B3B1931CC36057
:104C200053785F2B53D10024036A9C42EED2836AEF
:104C3000C2690133836252F82400BDE8F003704773
:104C4000A3F14102D2B2192A46D9826812076AD466
:104C500000296AD13F4A02F1C40502E01C32AA428F
:104C6000D4D014789C42F9D15569002D6BD043699A
:104C70008469D2F81880A34263DA03EB4307D0F8C3
:104C800010C0BF0001331CEB0706436160D04FF03A
:104C900018090CF8079037467560C6F80880C76297
:104CA00000294BD0D5681269016BA34211440163FE
:104CB000ACDA03EB430104690133890043616318F3
:104CC00044D01820605418465D609A609FE7A3F1B5
:104CD0003005EAB2092AB3D8002212E002EBC2047E
:104CE00003EB8403A3F13004A2428FD8C1682246AB
:104CF0000B784D1C1BB1C5600B785F2B11D0A3F155
:104D00003005E9B2A3F141040929E4B2E6D9192C2E
:104D10003FF67CAF02EBC20403EB8403A3F137043C
:104D2000E2E7013480E7012194E7C2681178433952
:104D3000C9B201298CBF002101218BE75568926817
:104D4000B2E70027ABE784694369A9E718465EE745
:104D50003746A4E724B70000D0F8003170B5FF2B28
:104D600004460D4606D05A1CC4F80021E55484F8C8
:104D7000045170BD00261946D0F80C21D0F8083136
:104D800080F8FF609847D4F8202133460132C4F8F8
:104D900020210122C4F80021E55484F8045170BD9B
:104DA00030B40268044613786E2B1AD00025A3F1A4
:104DB0003002D2B2092A19D822680020013200EB51
:104DC0008001226003EB410112F8013BA1F13000A8
:104DD000A3F13001C9B20929F1D905B1404230BC73
:104DE0007047531C036053780125E0E70020F4E787
:104DF0004369826910B5934213DA03EB43020169F8
:104E0000920001338C18436108D040238B540C303E
:104E1000FFF7C6FF23466060184610BD23461846BC
:104E200010BD0023184610BD10B5C36804461A789B
:104E30005F2A0BD06E2A06D00C30FFF7B1FFE36873
:104E40001A785F2A06D04FF0FF3010BD00200133E2
:104E5000E36010BD0130FAE738B5C36804461A783C
:104E6000542A01D0002038BD0133C360FFF7DCFFB6
:104E7000051EF7DBA16A6369A26901319342A16251
:104E8000F0DA03EB430221690133920063618B186E
:104E9000E8D005248C545D60184638BD08B5C36859
:104EA0001A785F2A01D0012008BD013340F80C3F79
:104EB000FFF776FFC043C00F08BD00BF70B50446C2
:104EC0000C30FFF76DFF061E32DDE56863685B1B83
:104ED0009E422FDCA268AB195207E36015D4092E5D
:104EE0000CDD28461449082205F002FA30B92B7A65
:104EF0002E2B10D05F2B0ED0242B0CD029463246FF
:104F00002046FFF7A3FDE06270BDAA5D242A04BF1E
:104F10000133E360E3E76B7A4E2BEFD1236B20463E
:104F200016339E1B266305491522FFF78FFDEAE71E
:104F3000002070BD0020E6E75CBE000068BE0000F7
:104F400038B5044629B9C3681A7832B15A1CC26010
:104F50001978682912D0762901D0002038BD04F1D3
:104F60000C052846FFF71CFFE3681A785F2AF4D186
:104F70000133E3602846FFF713FF03E004F10C0060
:104F8000FFF70EFFE3681A785F2AE6D10133E3608A
:104F9000012038BDD0F810310246C3B15A680B6801
:104FA000906870B102782F2A0DD1002B04DC09E043
:104FB00002782F2A07D143B18068013B0028F7D13E
:104FC0007047704701D0002070474068704701214A
:104FD0001846C2F81811704738B50C46054691B30B
:104FE00023784A2B27D8DFE803F02E262626263002
:104FF0002E2B2B262626262626262626262626263F
:1050000026262E2626262626262626262626262638
:10501000262E2626262626262626262E2B2626261B
:105020002626262626262626262E262626262E2610
:105030002E26262E2E0028466168FFF7CDFF18B9D0
:10504000A468002CCCD1002038BD2846211DFFF7D4
:10505000A1FF0028F7D003782F2BF4D138BD00BF73
:10506000F0B55368946801330B44A34283B01546EE
:105070000E46074613D8EC680CB103B0F0BD95E8B6
:10508000090032463946184405F041F995E80C000C
:105090003244D4546B681E446E6003B0F0BDD268D5
:1050A000002AEAD11CB9022B4FF0020402D9640095
:1050B000A342FCD82868214605F0D2F9034610B176
:1050C0002860AC60D7E72868019305F009F9019BD7
:1050D00001222B606B60AB60EA60CEE72DE9F04106
:1050E000C36805461A784C2A02D00020BDE8F0813A
:1050F0005A1CC26059785F293AD05A290DD1013221
:10510000EA602846002100F0F9FDEA681378452B93
:10511000EBD10132EA60BDE8F08100F005FA074604
:105120000028E2D00378272B33D0E9680B786E2B68
:1051300028D04FF03B08452B34D0002BD5D04B1C4A
:1051400001E0002CD1D0EB601E4613F8014B452C3A
:10515000F7D1721A2846FFF779FC3A4603464146D2
:105160002846FFF727FCEA681378452BBDD1D0E726
:105170009A1CC2609B785A2BC1D0452B4FF000007F
:10518000B3D1C6E74A1CEA604B784FF03C081146A1
:10519000D1E743681A7C002AC7D05A682B6B9B1A48
:1051A0002B63C2E70022D5E7F0B5C16883B00B7866
:1051B0000446493BDBB2012BC76A1ED84A1CC260B9
:1051C0004B78452B45D0002102AE46F8041D493BE3
:1051D0000F2B35D8DFE803F02F2F34143434343458
:1051E00034343434343434080132E260204601F07F
:1051F00077FAE3681A78452A27D0002003B0F0BD7B
:105200002046FFF76BFF054620462F212A46002344
:10521000002DF2D0FFF7CEFB306000F10806002829
:10522000EBD0E2681378452BD1D101980132E260CE
:10523000E76203B0F0BD2046FFF7B6FF0546E3E79F
:10524000204600F071F90546DEE70133E3600546CC
:10525000DAE702310022C16013462F2103B0BDE816
:10526000F040FFF7A7BB00BF2DE9F041C26882B054
:10527000137805464C3B0E2B6DD8DFE803F02C6C01
:10528000316C6C6C6C176C2C6C6C6C6C08000132A3
:105290000021C26000F032FDEB680646197845290E
:1052A00000F0D180002002B0BDE8F0815378742B6B
:1052B00069D00021FFF7A4FCEB6804461B78492B5A
:1052C00050D12846FFF770FF2246034604212846A6
:1052D000FFF770FB01E001F0C3F802B0BDE8F08118
:1052E0000132C26001A90122FFF7CAFB074600286C
:1052F000D8D028460021FFF71DFCEB6880461C78BB
:105300000026002C00F08E80442C00F08280A4F156
:105310003002D2B2092A5CD9A4F16102D2B2192AB0
:1053200057D9432C55D0552C53D04C2C51D0532CFD
:1053300000F08480492C7AD0542C00F0B380452CA6
:1053400000F0D8804D2C6DD1002E6BD05A1CEA6035
:105350005C781346D5E701F083F8EB6804461B78C8
:10536000492B03D0204602B0BDE8F081002899D037
:105370002B6A6A6A934295DAEA69591C42F823005B
:10538000284629629EE702326549C2600322FFF780
:105390005DFB0446284601F063F8224603460121DE
:1053A0002846FFF707FB2A6BEB6803322A631B785A
:1053B0000446492BD6D100283FF474AF2B6A6A6AA1
:1053C0009342BFF66FAFEA69591C42F82300296285
:1053D00077E7284601F044F8CEB101213246034672
:1053E0002846FFF7E7FA0646EB68532C1C7888D06E
:1053F000452C8CD0B6B12B6A6A6A934212DAEA69FC
:10540000591C42F82360EB6829621C7879E706464C
:10541000EAE75B7803F0DF03542BDAD1284600F08B
:1054200083F8D9E70020386002B0BDE8F081002E93
:10543000F8D02846FFF7B8FE0421CFE7284601211F
:10544000FFF7DEFBC8E75A1CEA605A78732A3DD0A2
:10545000642A2BD04FF0FF372846FFF705FF04469C
:1054600020B10378442B01D0462B29D17B1C25D0B9
:105470006B69AA69934213DA03EB4302296901338A
:1054800092006B618B1803D0452088549F605C604C
:10549000284632460221FFF78DFA02B0BDE8F081BE
:1054A0000023F5E72846FFF7D7FC95E70233EB60CA
:1054B0002846FFF7B9FC071ECEDAF3E62346E7E7F6
:1054C0002846FFF7EBFC0028D0D1EBE60233EB6077
:1054D0002846FFF7E3FC00283FF4E4AE28461149D4
:1054E0000E22FFF7B3FA3246034602212846FFF7A1
:1054F00061FAF2E63E60002E3FF4D4AEB8F1000F40
:1055000004D0019BCDF80480C8F80430EB681A7809
:10551000452A7FF4C7AE0133EB600198DDE600BF9A
:1055200090BE000080BE0000F0B5C26883B0137862
:105530000446722B54D0562B52D04B2B50D0A3F193
:1055400030014A297ED8DFE811F0A300A300A300B0
:10555000A300A300A300A300A300A300A3007D0059
:105560007D007D007D007D007D007D00A8007D0028
:10557000D20002017D00DF00F5007D007D007D008E
:105580007D007D007501A300C601AC017D00B9015D
:10559000D301F6010E027D007D007D007D00A30099
:1055A0007D007D007D007D007D007D001F021F02CB
:1055B0001F021F021F021F021F021F021F021F02E3
:1055C0007D001F021F021F021F027D007D007D0063
:1055D0001F021F028A001F021F021F021F021F025A
:1055E000204601A90022FFF74BFA054650B320469A
:1055F000FFF79AFF286028B302781F3AD2B2012A37
:1056000023D9019AF2B1236A616A8B421ADAE169FD
:105610005D1C41F823200198256203B0F0BD2046AF
:1056200001F05EF84121024600232046FFF7C2F94F
:10563000019038B1E3681A7822B15A1CE2601B78F5
:10564000452B1AD0002003B0F0BD019A416842609A
:105650002B6801932960019A002AD4D1F2E7013224
:10566000E2602046FFF72AFC28210246002320465C
:10567000FFF7A0F901900028E4D0236A626A934200
:10568000E0DAE269591C42F8230001982162DAE766
:105690002046FFF7E9FD0190EDE7511CE1605378EA
:1056A0005F2B00F07E82303BDBB2092B00F281825F
:1056B0000A460132E2601378303BDBB2092BF8D99D
:1056C000521A2046FFF7C2F90546002830D0E1689B
:1056D0000B785F2B2CD10131E1602046FFF724FFCE
:1056E0002A4603462A212046FFF764F9D3E7013210
:1056F000E2602046FFF718FF2521024600232046DE
:10570000FFF758F90190B6E7531CE3605378012185
:10571000592B04BF0232E260204600F0D1FA014664
:105720002046FFF707FAE3681A78452A00F03E8220
:105730000020B0E70132E2602046FFF7F5FE2621A7
:10574000024600232046FFF735F9019093E7531CEA
:10575000E3605378002B3FF475AF931CE3605378FC
:10576000463B302B3FF66EAF01A151F823F000BF4E
:105770008D5A000045560000455600004556000071
:1057800045560000455600004556000045560000AD
:10579000455600004556000045560000455600009D
:1057A00045560000455600001F56000045560000B3
:1057B000455600004556000045560000455600007D
:1057C000455600004556000045560000455600006D
:1057D000455600004556000045560000815A00001D
:1057E0004556000045560000595A0000315A000045
:1057F000095A000045560000E1590000B159000067
:10580000455600004556000045560000455600002C
:10581000655B0000455600004F5B000045560000E8
:10582000455600002B5B00001F5600004556000047
:10583000F55A00000132E2602046FFF775FE01AE26
:105840000746314620460122FFF71AF9054600288F
:105850003FF46EAF2046FFF767FE286000283FF454
:1058600067AFB54216D00178A1F11F02D2B2012A6A
:1058700040F2A78129290DD0019A002A3FF458AFA0
:10588000236A616A8B42BFF653AFE169581C41F845
:10589000232020623A4620462B21019BFFF78AF8FD
:1058A000F9E60132E2602046FFF73EFE2221024681
:1058B00000232046FFF77EF80190DCE60132E2602B
:1058C0002046FFF731FE2321024600232046FFF742
:1058D00071F80190CFE60132E2602046FFF724FE26
:1058E0002421024600232046FFF764F80190C2E617
:1058F0005378A3F13002D2B2092A06D95F2B04D023
:10590000413BDBB2192B00F2648120460021FFF7F6
:1059100077F9E36801901B780546492B7FF493AE35
:105920002046FFF741FC2A46034604212046FFF7A4
:1059300041F801909FE62046FFF78EFAE368019058
:105940001B78492B7FF497AE00283FF47BAE236A87
:10595000626A9342BFF676AEE269591C42F82300B0
:10596000019D2162DCE70132E2602046FFF7A6FAE2
:1059700001902046FFF7D8FD21210246019B2046D9
:10598000FFF718F8019076E66169A069613BA14DC7
:1059900003EB8303814205EB8303C0F2F580002013
:1059A00043685968236B01320B44E26023634AE683
:1059B0006369A269934280F2F68003EB4302216996
:1059C000920001338818636100F0EE80924D272326
:1059D0008B542B4645605A68236B1344236332E68D
:1059E0006369A269934280F2DE8003EB430221697E
:1059F000920001338818636100F0D680874D272319
:105A00008B542B464560E6E76369A269934280F2B6
:105A1000CA8003EB43022169920001338818636155
:105A200000F0C2807E4D27238B542B464560D2E781
:105A30006369A269934280F2B68003EB4302216955
:105A4000920001338818636100F0AE80754D272302
:105A50008B542B464560BEE76369A269934280F28E
:105A6000A28003EB4302216992000133881863612D
:105A700000F09A806C4D27238B542B464560AAE793
:105A800020466A490422FEF7E1FFDCE56369A1696B
:105A90008B4280F2AA80216903EB4305013301EBBD
:105AA000850563612C2301952B709378303BDBB225
:105AB000092B8CBF002301232B81002B40F0978002
:105AC0002046FFF731FD6860019B5B68002B3FF4C7
:105AD000B9AD04F10C00FFF763F9E3681A7832B14D
